:400000000080002011000000A50B0000A50B000080B500AF00F0FAFD80B500AF244B12221A6002F01FF9234B180002F0F5FA012002F028F9302001F0F7FE1F4B1F4A1A60BB
:400040001F4B8022D2051A601E4B1E4A126802210A431A601C4B1D4A1A601D4B00221A601C4B1C4A126808218A431A60FA23DB00180001F0CBFF184B180002F043F8174B16
:40008000C82252011A60164B164A1A60164B802212061A60154B8022D2021A60144B40221A60074B8022D2051A60C046BD4680BD30001040001BB70004010B40060000807B
:4000C0000C020B4078002E407C002E406A2D000064F02E406CF02E40DC050000000301400000014040FF008008010B4000010B400401014080B582B000AF72B6394B0022C5
:400100001A60FB1D00221A7022E0FB1D1A7813005B009B185B00344A9B183B603B681A78597809020A43997809040A43DB781B06134318003B681A795B791B0213439BB218
:40014000190000F00BFDFB1D1A78FB1D01321A70FB1D1B78012BD8D9244BEE2212061A60234B992212041A60224B992212041A60214B992212041A60204B992212041A6078
:400180001F4B992212041A601E4A1E4B1B78DBB206210B43DBB213701B4BD82212041A601A4B20221A601A4BC42292021A60194B20221A60184B80221A60184BB022D20301
:4001C0001A60174B8022D2011A60164BD82212041A60FFF721FF00F0D1FCC046BD4602B080BDC0466CF02E406C5E0100000002400001024000500F4010500F4020500F4051
:4002000030500F4000700F400800044000010440080104401801044000020440080204400C0204400803044010B5064C2378002B07D1054B002B02D0044800E000BF0123AF
:40024000237010BD40100020000000002C5A0100084B10B5002B03D00749084800E000BF07480368002B00D110BD064B002BFBD09847F9E700000000441000202C5A01004E
:40028000A80B00200000000090B587B000AF786039607B68272B00D1A7E00FD8032B00D16FE004D8012B1DD0022B5CD0EEE0042B00D16BE0262B00D171E0E7E0422B00D12E
:4002C000CCE006D8282B00D19BE0412B00D1B4E0DCE0432B00D1D2E082225200934200D1CFE0D3E06B4B180002F07EFD0C23FB18180003F077FD1723FB1806221A7013E06B
:400300001723FB181B78013B0C22BA18D35C1A00614B1100180002F067FD1723FB181A781723FB18013A1A701723FB181B78002BE6D15A4B180002F0D3FD1423FC18002090
:4003400000F0C4FE030023801423FB181B88002B00D198E01423FB181A88514B1100180002F042FD8FE03B681B78012B04D14D4B180002F0B5FD89E04B4B180002F0B0FD32
:4003800084E04A4B180002F0ABFD7FE03B681B781A00474B1100180002F026FD76E0454B5B78002B13D1444B1B78012B07D1434B180002F095FD404B00221A7066E0404BF3
:4003C000180002F08DFD3C4B01221A705EE03A4B1B78012B04D13B4B180002F081FD55E0394B180002F07CFD50E0324B1B781A00364B1100180002F0F7FC2F4B02221A7083
:4004000044E0334B180002F06BFD1423FC18002000F05CFE03002380264B00221A701423FB181B88002B30D01423FB181A88294B1100180002F0D8FC27E01E4A3B681000A7
:40044000190002231A0002F0BEFC1A4B5B781A00214B1100180002F0C7FC17E01F4B180002F03EFD134B00225A701D4B00221A701C4B1A000121002000F0B2FF06E0C04688
:4004800004E0C04602E0C04600E0C046C046BD4607B090BD305A0100545A01005C5A0100605A0100845A0100C85A0100DC5A0100F05A0100F02100205C100020105B01001E
:4004C0002C5B0100485B0100685B0100885B0100B05B0100D45B0100F85B01001C5C01005E100020F521002080B500AF034B01221A7001F0FBFBC046BD4680BD5D100020C2
:4005000080B500AF01F008FF0E4B180001F006FC0121012001F042FF0121012001F06CFF094B1900012001F0CDFF012002F058F880235B00180001F095FF01F0C3FEC04666
:40054000BD4680BD4D050000FF7F000080B500AF02F000F802008023DB0013401DD0104B1B78022B14D00F4B1B78142B0AD00E4B1B78002B06D00B4B1B780133DAB2094BEE
:400580001A7005E0084B00221A70064B00221A708023DB00180001F0EBFFC046BD4680BD5C100020F4210020F521002080B500AF464B1B78002B06D1002000F087FC012064
:4005C00001F00EFB2DE0414B1B78012B20D1012000F07CFC3E4B1B880F2B0DD13D4B1B78012B03D13B4B00221A7002E0394B01221A70374B00221A80354B1B8801339AB2AA
:40060000334B1A80334B1B78180001F0E9FA08E0012000F05BFC012001F0E2FA012000F07DFC2A4B1B78022B4DD02B4B1B78012B27D12A4B1B78142B23D0294B1B78012BF1
:4006400006D1284B180002F04BFC254B00221A70254B1B880F2B0DD1244B1B78012B03D1224B00221A7002E0204B01221A701E4B00221A801C4B1B8801339AB21A4B1A80D5
:400680001CE0154B1B78022B12D1144B1B78142B0ED0134B1B78012B06D1154B180002F01FFC0F4B00221A70104B00221A7005E00B4B01221A700D4B01221A700B4B1B78D0
:4006C000180000F02BFCC046BD4680BD5C100020F2210020AD0B0020F5210020F4210020AF0B00203C5C0100EC210020AE0B0020685C010090B585B000AF62B6012000F0F3
:40070000E5FB012001F06CFA012000F007FC804B180000F047FC7F4B180001F089FA7E4B180000F0D5FD7D4B180000F09BFE0823FB1801225A700823FB1807221A700E2388
:40074000FC180823FB18180005F0B8FB03002380FFF7D6FE0E23FB181B88002B12D10823FB181B78180000F063F903005AB2FB1D1A70FB1D1B785BB21A00694B110018006D
:4007800002F032FB00F0E0FA03F030FB654B1B78022B15D0634B1B78032B11D0624B1B78012B00D071E0002000F090FC031E03D15E4B180002F094FB5B4B00221A7064E097
:4007C000594B1B78012B60D1564B1B78022B04D10823FB1801225A7007E0524B1B78032B03D10823FB1800225A700823FB18180005F012FB0823FB18180000F05FF90E239A
:40080000FC180823FB18180005F058FB030023800E23FB181B88002B34D10823FB18180005F0FAFA0823FB181B78180000F000F903005AB2FB1D1A70FB1D1A000121002013
:4008400000F090FE3A4B1B78DBB2002B11D0F91D384B1A785B781B02134300201B041B0C020C1204134318000B000122002100F0B7FEFB1D1B785BB21A00294B110018007D
:4008800002F0B2FA284B00221A70FFF78FFE254B1B78012B00D177E70D23FC18032003F099FA0300237072B60C23FC1805F0A6FA030023700D23FB181B78032B1ED10C235F
:4008C000FB181B78042B04D00C23FB181B78062B1BD100F06FFA0100174B1A6880231B02134001D0012300E00023CB18002B02D101F036FC09E001F019FC06E00C23FB18F9
:400900001B78022B01D001F011FC62B63CE7C04689020000E90400003D090000CD090000945C0100002200205D100020B85C01005E100020082200200802244080B584B0CF
:4009400000AF786039607A68E3235B009A422CD1184B180002F0C4FA3B68FB60FB685B689B88012B21D1FB685B681B681A78124B1A70114B1B78012B08D0022B0BD0002B63
:400980000ED10E4B180002F0ABFA0EE00C4B180002F0A6FA09E00B4B180002F0A1FA04E0094B180002F09CFAC046C046BD4604B080BDC046E45C0100F5210020105D0100BA
:4009C0003C5D01006C5D01009C5D010080B582B000AF786039607B68104A94466344052B14D89A000E4BD3181B689F460D4B180002F076FA0C4B01221A700AE00B4B1800C4
:400A000002F06EFA084B00221A7002E0C04600E0C046C046BD4602B080BDC046F6FDFFFF0C5E0100D45D01005E100020F05D010080B584B000AF0200FB1D1A700F23FB1826
:400A400000221A70FB1D1B78082B2CD89A001A4BD3181B689F460F23FB18EE221A7023E00F23FB18F4221A701EE00F23FB18FA221A7019E00F23FB18FD221A7014E00F23D9
:400A8000FB18FE221A700FE00F23FB18FF221A700AE00F23FB1800221A7005E00F23FB1803221A7000E0C0460F23FB181B785BB21800BD4604B080BD245E010080B582B025
:400AC00000AF78607B681B78082B24D89A00144BD3181B689F467B6808221A701CE07B6801221A7018E07B6802221A7014E07B6803221A7010E07B6804221A700CE07B68FA
:400B000005221A7008E07B6806221A7004E07B6807221A7000E0C046C046BD4602B080BD485E010080B586B000AFF860B9607A6000237B6109E0BB685A1CBA601B781800DD
:400B400000F022F97B6901337B617A697B689A42F1DB7B681800BD4606B080BD80B582B000AF786039603A687B680021180002F033F9C046BD4602B080BDC04680B500AFD2
:400B8000054B03221A60054B03221A60044B00221A60C046BD4680BD3000304030003140000E3F4080B500AF02F0D2F803001B680C2B00D1FEE7FEE780B584B000AF786070
:400BC000104B1A687B68D3181A000F4BD21A8023DB009A4209DC0B4B1B68FB60094B1A687B68D218074B1A6007E002F0B1F803000C221A6001235B42FB60FB681800BD4641
:400C000004B080BDB00B00201022002080B586B000AF224B7B61224B3B61204B7B6135E03B691B68FB603B695B68BB603B699B683B6000237B600CE0FB681A68BB681A601C
:400C4000BB680433BB60FB680433FB607B6804337B607A683B689A42EED13B69DB683B6000237B6008E0BB6800221A60BB680433BB607B6804337B607A683B689A42F2D140
:400C80003B6910333B617B69013B7B617B69002BC6D102F063F8FFF72DFDFEE701000000BC62010080B582B000AF154B144A126801218A431A6000237B600FE07B68032BE8
:400CC00004D8104B7A689200D35800E00E4B0F4A796889008B507B6801337B607B682F2BECD9FFF707FA0A4B00221A60044B044A126801210A431A60C046BD4602B080BD73
:400D00000000104000000000A50B000000000020C000002080B500AF00F05CF8C046BD4680BDC04680B500AF064B064A1268802109060A431A6000F019F800F01DF8C046BD
:400D4000BD4680BD0000244080B500AF064B1B78002B04D1FFF7DEFF034B01221A70FFF7E1FFC046BD4680BD6010002080B500AFC046BD4680BDC04680B500AF00F08CF805
:400D8000C046BD4680BDC04680B582B000AF7860C046064B1B681F221340082BF9D0044B7A681A60C046BD4602B080BD080224404002244080B582B000AF054B1B681F22AE
:400DC00013407B607B681800BD4602B080BDC0460802244080B500AF1B4B1C4A1A601C4B00221A601B4B1C4A1A601C4B1C4A1A601C4B07221A601C4B00221A601B4B012214
:400E00001A601B4B164A1A601A4B00221A601A4B04221A60194B00221A60194B00221A60184B00221A60184B00221A60174B00221A60174B00221A60154B1B689AB2154B69
:400E40001A80C046BD4680BD000024400F000002400024404800244001000A000003244007000080040324401003244044002440000224400402244050002440880E2440CC
:400E8000C80E2440480F2440080F2440C80F2440880F24406210002080B500AF074B074A126807490A40902109040A431A60054B054A12881A60C046BD4680BD000102409E
:400EC000FFFF0FFF880F24406210002080B584B000AF0200FB1D1A700F4B1B68DAB20F23FB1840218A431A70FB1D1B789B01DBB240221340D9B20F23FB180F22BA18127851
:400F00000A431A70044B0F22BA1812781A60C046BD4604B080BDC0460002044080B584B000AF0200FB1D1A700D4B1B68DAB20F23FB187F210A401A70FB1D1B78DB01D9B250
:400F40000F23FB180F22BA1812780A431A70044B0F22BA1812781A60C046BD4604B080BD0003044080B500AF064B00221A70064B00221A70054B00221A7000F009F8C04660
:400F8000BD4680BD0B220020042200200A22002080B500AF00F096F900F05EFAC046BD4680BDC046B0B594B004AF78603E23FB1800221A802823FA183D4B10001900142372
:400FC0001A0001F000FF3B4B1B78002B04D1FFF7C9FF384B01221A707B68002B5CD0364B7A681A603E23FB181B88002B29D11023FB181C22BA185A601023FB182022BA1823
:401000001A601023FB1800221A812023FB181B221A802023FB181B225A802023FB1804221A711C23FB1808221A703E23FC180E23FA181023FB181100180002F0B3FF0300BE
:4010400023803E23FB181B88002B29D13E23FC182823FD18AE231A01184919480023029300230193052300932B0002F0F1FE030023803E23FB181B88002B11D1114B01228F
:401080001A703E23FC18104B12221221180010F0BBF80300238003E03E23FB1801221A803E23FB181B881800BD4610B0B0BDC046785E010064100020F8210020C8000020F9
:4010C0006118000000220020945E010090B585B000AF0200FB1D1A70FB1D1B78022B04D90E23FB1801221A804AE0294B1B78042B41D1284B1B78DBB21A00042313403AD11B
:40110000FB1D1B78002B0BD1234B1E221A82224B5B6820221A80204B5B6830225A8010E0FB1D1B78012B0CD11B4B96221A821A4B5B68C822D2001A80174B5B688022D201D7
:401140005A80164BFA1D12781A700E23FC18124B18000DF075FC030023800E23FB181B88002B0DD10B4B1B78DBB204221343DAB2084B1A7004E00E23FB180422FF321A80D7
:401180000E23FB181B881800BD4605B090BDC046002200200B220020E40B00200A22002080B584B000AF78600A00FB1C1A700023BB60BB68002B20D07B689A79BB681A7081
:4011C0000F23FB1800221A7012E00F23FB181B780133BA68D3180F22BA18127879688A5C1A700F23FB181A780F23FB1801321A700F23FB181B78052BE7D9C046BD4604B0B7
:4012000080BDC04680B582B000AF78607B681B789AB27B6801331B789BB21B029BB213439BB21800BD4602B080BDC04690B585B000AF78600F23FB1800221A707B689B89AE
:401240000B22934232D17B68181D7A680F23FC184023002110F021F8030023700F23FB181B78002B1AD17B685B681800FFF7CAFF03001A00022313409BB2002B07D00F4B4D
:401280001B687968822252001000984706E00B4B1B6879680622FF3210009847084B1B78DBB201229343DAB2054B1A700F23FB181B781800BD4605B090BDC046F8210020F7
:4012C0000B22002080B500AFC046BD4680BDC04680B582B000AF7860034B7A681A60C046BD4602B080BDC0468810002080B584B000AF0F23FB1800221A700E223B001A8114
:401300003B0001229A803B000F22BA181A6038000023002200210FF0C0FFC046BD4604B080BDC04690B587B000AF78601723FB1800221A70284B1B68002B45D00E227B68DC
:401340009B899A4240D17B685B681B78022B2FD87B681B89012B26D17B68181D7A681723FC18402300210FF098FF030023701723FB181B78002B1FD10C23FB187A68128894
:401380001A800C23FB1800229A707B681A1D0C23FB185A60104B1B680C22B918E32252001000984708E01723FB180D221A7003E01723FB18FF221A70084B1B78DBB201228D
:4013C0009343DAB2054B1A701723FB181B781800BD4607B090BDC046881000200B22002080B586B000AF3A60FB1D021C1A70BB1D0A1C1A701623FB1801221A803B68002BD4
:4014000022D0FB1D1B78002B1ED1BB1D1B78012B1AD10E220823FB181A81BB1D1B789AB20823FB189A800823FB183A681A600823FB180022002118000FF0FEFE031E03D178
:401440001623FB1800221A801623FB181B881800BD4606B080BDC04680B500AFC046BD4680BDC04680B582B000AF7860034B7A681A60C046BD4602B080BDC0468C100020DF
:4014800090B587B000AF78601723FB1800221A702F4B3B612F4B1B68002B51D07B689B89122293424CD111235A1E2B4913009B009B189B00CB1804331A6880235B03134098
:4014C00032D07B685B681800FFF79CFE03001A00012313409BB2002B01D0204B3B617B68181D7A681723FC18402300210FF0D5FE030023701723FB181B78002B18D1082365
:40150000FB187A6812881A800823FB1800229A700823FB1800225A600E4B1B680822B9183A691000984703E01723FB1806221A700B4B1B78DBB201229343DAB2084B1A70DB
:401540001723FB181B781800BD4607B090BDC0460B0200008C100020945E01000A0200000B22002080B586B000AF3A60FB1D021C1A70BB1D0A1C1A701623FB1801221A804C
:40158000FB1D1B78002B24D13B681B785BB2032B1FDC3B681B785BB212331ADB11220823FB181A81BB1D1B789AB20823FB189A800823FB183A681A600823F8180023002282
:4015C00000210FF06AFE031E03D11623FB1800221A801623FB181B881800BD4606B080BD90B589B000AF0C243C192080080011007B600B23FB18021C1A700A23FB180A1CD4
:401600001A701E23FB1801221A807B68002B52D00B23FB181B78002B4DD10A23FB181B78012B48D112235A1E264913009B009B189B00CB1810331B685B681800FFF7E2FD39
:4016400003001A00012313409BB2002B2ED011221023FB181A811023FB187A681A600A23FB181B789AB21023FB189A801023F8180023002200210FF010FE031E1BD1124B0B
:401680001B78022B05D01E23FB180422FF321A8011E01E23FC181023FA180C23FB18110018680EF05FFB0300238004E01E23FB18802252001A801E23FB181B881800BD461C
:4016C00009B090BD945E01000022002090B585B000AF78600F23FC187B681800FFF7A6FD03002370294B1B78DBB21A00012313400CD00F23FB181B78002B07D10F23FC181C
:401700007B681800FFF70EFE030023701F4B1B78DBB21A00012313400CD00F23FB181B78002B07D10F23FC187B681800FFF7A8FE03002370154B1B78DBB21A0001231340C0
:401740001FD10F23FB181B78002B16D00823FB1812229A707B689A890823FB181A800823FB180F22BA181278DA700823FA187B68110018680EF0B8FA03E07B6818680EF07C
:401780003DFBC046BD4605B090BDC0460B22002080B582B000AF7860C046BD4602B080BD80B500AF044B00225A70034B00221A70C046BD4680BDC0460822002080B582B097
:4017C00000AF7860C046BD4602B080BD80B500AFFFF78CFDC046BD4680BDC04680B584B000AF78600E23FB1800221A707B689B79002B1CD10F23FB1800221A7012E00F23B7
:40180000FB181B787A68D35C002B04D00E23FB1801221A700BE00F23FB181A780F23FB1801321A700F23FB181B78052BE7D90E23FB181B781800BD4604B080BD80B582B02B
:4018400000AF0200BB1D1A80C046BD4602B080BD80B582B000AF7860C046BD4602B080BD80B588B000AF02003960FB1D1A70CD4B1B78DBB201221343DAB2CA4B1A70FB1D1A
:401880001B78712B00D96BE19A00C74BD3181B689F461023FB1807221A701023FB1800225A701023FB18180004F008FB1023FB1807221A701023FB1801225A701023FB18E3
:4018C000180004F0FBFA0023002B01D002F07EFAB64B1B681800FFF781FF031E11D0B34B1B68180002F086FAB04B1B6800211800FFF756FCAD4B1B6801211800FFF750FC49
:4019000036E0AB4B1B781A003F231A40A94B1B789901FC231B010B401A43A74B1B781903F8235B020B401A43A44B1B785904FE231B040B401343BB61BB69DAB2A04B1A706C
:40194000BB691B0ADAB29E4B5A70BB691B0CDAB29B4B9A709A4B180002F04CFA984B00211800FFF71DFC964B01211800FFF718FC03200CF009FF0C23FB183F221A700C2310
:40198000FB1800225A700C23FB1818000CF01AFF8C4B04221A70EAE03B681800FFF70EFFE5E03B681A78884B1A70E0E03B687B617B691B78002B00D0D4E07B695B78002B0C
:4019C0000BD1824B0022DA80804B00229A807F4B7F4A1A607B697D4A5A60724B1B78DBB201229343DAB26F4B1A70BBE06D4B1B78DBB21A002023134000D0B5E0754B1B78C8
:401A0000102B02D1734B0522DA70734B1B78714A110018000CF0D6FF03001A000A23FB181A800A23FB181B88002B06D06B4B1B680A22BA181100362098475A4B1B78DBB246
:401A400001221343DAB2574B1A708DE03B681800FFF7FEFE8BE03B681800FFF7F9FE594B02221A7083E0574B04221A707FE0554B1B78022B00D179E04A4B1B78DBB21A0049
:401A80000123134000D171E0464B1B78DBB21A00042313400BD04B4B03221A70414B1B78DBB204229343DAB23E4B1A705EE03D4B1B78DBB21A00082313400BD0414B0422D6
:401AC0001A70384B1B78DBB208229343DAB2354B1A704BE03B4B1B78032B47D1394B04221A7043E03B681B881800FFF7A7FE3EE0394A3B681000190002231A0001F063F950
:401B0000314B00221A70FFF761FE30E0FFF748FE2DE03B685B88162B05D81E23FB183A6852881A8003E01E23FB1817221A801E23FB1819883B681A8800231204120C1B0CFF
:401B40001B04134318000EF0D9F810E03B681800FFF7BCFD0BE03B681800FFF719FE06E0C04604E0C04602E0C04600E0C0460D4B1B78DBB21A00112313400ED0094B1B787A
:401B8000DBB201229343DAB2064B1A70134B1B68FA1D1278396810009847C046BD4608B080BDC0460B22002008600100000C00207CF2FF0F7DF2FF0F7BF2FF0F78F2FF0F54
:401BC000F80B0020002200200422002090100020A80B0020680C002008220020F821002080B584B000AF0200FB1D1A700F4B1B68DAB20F23FB1840218A431A70FB1D1B78C3
:401C00009B01DBB240221340D9B20F23FB180F22BA1812780A431A70044B0F22BA1812781A60C046BD4604B080BDC0460003044080B582B000AF786000F04EF87B681800D6
:401C400000F00AF8032000F015F800F03BF8C046BD4602B080BDC04680B582B000AF7860034B7A689A64C046BD4602B080BDC0460000002090B585B000AF0200FB1D1A702A
:401C80001623FB600B23FC1800F0CFFC030023700A4B0A4A12680A491140FA1D1078FA68904002000A431A600B23FB181B78180000F0BFFCC046BD4605B090BD00E400E036
:401CC000FFFF3FFF80B500AF024B04221A60C046BD4680BD00E100E080B500AF024B04221A60C046BD4680BD80E100E080B582B000AF094B1B68DAB2FB1D7F218A431A70F0
:401D0000054BFA1D12781A60FB1D1B78DB09DBB21800BD4602B080BD1002044080B582B000AF786000F050F87B68180000F00AF8032000F015F800F03BF8C046BD4602B0AB
:401D400080BDC04680B582B000AF7860034B7A681A66C046BD4602B080BDC0460000002090B585B000AF0200FB1D1A700623FB600B23FC1800F059FC030023700B4B0B4A4B
:401D80001268C0218A431100FA1D1078FA68904002000A431A600B23FB181B78180000F048FCC046BD4605B090BDC04608E400E080B500AF034B802252001A60C046BD46AA
:401DC00080BDC04600E100E080B500AF034B802252001A60C046BD4680BDC04680E100E090B585B000AF78600F23FC1800F01DFC030023700A4B7A68D104E02292031140D8
:401E0000074A1268074802400A431A600F23FB181B78180000F00DFCC046BD4605B090BD00010B40FFFFC7FF90B585B000AF78600C23FC1800F0F9FB030023707B68022BAD
:401E400000D8AFE07B68302B00D9ABE05C4B1B78DBB21A007B689A420AD35A4A0F23FB1812781A70584A0E23FB1812781A703FE0564B1B78DBB21A007B689A420AD3544AB1
:401E80000F23FB1812781A70524A0E23FB1812781A702DE0504B1B78DBB21A007B689A420AD34E4A0F23FB1812781A704C4A0E23FB1812781A701BE04A4B1B78DBB21A00AE
:401EC0007B689A420AD3484A0F23FB1812781A70464A0E23FB1812781A7009E0444A0F23FB1812781A70434A0E23FB1812781A707B68DA1E0B23FB183F498A5C1A700B237C
:401F0000FB181B782F2B0DD97B682A2B0AD93B4B19221A60052000F07FFB0D23FB1819221A7007E0354B1B68DAB20D23FB183F210A401A700B23FA180D23FB1812781B7841
:401F40009A4208D22D4B7A68033A2B498A5C1A60052000F061FB2A4B7A6826498C4662441278D2B21A60274B0F22BA1812781A60254B0E22BA1812781A60052000F0C2F84B
:401F80000B23FA180D23FB1812781B789A420CD91A4B7A68033A18498A5C1A60052000F03BFB02E0002000F07BF80C23FB181B78180000F03EFBC046BD4605B090BDC046A4
:401FC00040F3FF0F41F3FF0F42F3FF0F43F3FF0F44F3FF0F45F3FF0F46F3FF0F47F3FF0F48F3FF0F49F3FF0F4AF3FF0F4BF3FF0F4CF3FF0F4DF3FF0FD06101002CFF0B4050
:4020000028FF0B401CFF0B4020FF0B4080B584B000AF78600023FB60154B154A126801210A431A60134B144A1A60144B134A1268802109020A431A607B68002B12D01023CC
:40204000FB600CE0012000F05DF800F019F8031E02D00023FB6005E07B68013B7B607B68002BEFD1FB681800BD4604B080BDC04660F02E4078002E400220000010002E40DB
:4020800080B582B000AF054B1B68012213407B607B681800BD4602B080BDC0460C002E4080B582B000AF0200FB1D1A7001BEC046BD4602B080BDC04680B582B000AF786014
:4020C00009E00D4B1B68180000F0A6FA7B680B4A944663447B607A6880231B029A42F0D8074B1B687A685343180000F095FAC046BD4602B080BDC0467C0C00200080FFFF92
:40210000740C002080B582B000AF0200BB1D1A80BB1D1B88044A12785343180000F07CFAC046BD4602B080BD780C002090B583B000AFFC1D00F079FA03002370074B074A96
:40214000126804218A431A6030BFFB1D1B78180000F06FFAC046BD4603B090BD10ED00E090B583B000AFFC1D00F05FFA03002370114B114A1268520052081A600F4B104A5E
:40218000128892B21A600F4B0E4A126804210A431A600D4B1B683B600220FFF721FE30BF094B3A681A60FB1D1B78180000F041FAC046BD4603B090BD00000B400C000B400A
:4021C00052F2FF0F10ED00E000010B4080B500AF0F4B0F4A126801218A431A600C4B0C4A126802218A431A600A4B0A4A126830218A4310210A431A60064B064A12680721DD
:402200008A4301210A431A60C046BD4680BDC04600F02E4000FF2E4080B500AF0F4B0F4A126802218A431A600D4B0D4A126807218A4302210A431A60094B094A12683021DC
:402240008A4320210A431A60044B044A126801210A431A60C046BD4680BDC04600F02E4000FF2E4080B500AFFFF7B0FF044B044A1268802109060A431A60C046BD4680BD15
:4022800000F02E4080B584B000AF78600C4B1B6801221340FB607B68002B02D0012B03D005E0FFF793FF06E0FFF7B6FF03E00020FFF7F6FEC046FB681800BD4604B080BDE6
:4022C00000F02E4090B583B000AFFC1D00F0ADF903002370074B074A1268C02109020A431A60FB1D1B78180000F0A3F9C046BD4603B090BD00010B4080B500AF054B1A68EA
:40230000C0231B02134001D0012300E000231800BD4680BD00010B4090B583B000AFFC1D00F083F9030023700D4B0D4A12680D490A408021C9010A431A60094B084A126851
:4023400008490A40802109020A431A60FB1D1B78180000F06EF9C046BD4603B090BDC04600010B40FF3FFFFF80B582B000AF78607B68022B02D90020FFF792FE064B1A684C
:402380007B68DB000133DA401300012213401800BD4602B080BDC04610020B4080B584B000AF786039607B68022B02D90020FFF777FE7B681800FFF7D7FF031E16D10D4BF5
:4023C0001B687A68D200032191400A00D2431340FB603B6803221A407B68DB009A401300FA681343FB60034BFA681A60C046BD4604B080BD0C020B4080B584B000AF786097
:4024000039607B68002B02D07B68012B01D1012300E00023002B02D10020FFF741FE7B681800FFF7A1FF031E16D10D4B1B687A68D2000232012191400A00D2431340FB60AC
:402440007B68DB0002333A689A401300FA681343FB60034BFA681A60C046BD4604B080BD0C020B4080B582B000AF7860144B144A11687A680A431A607B680122134005D04F
:40248000C0460020FFF770FF031EFAD07A6880235B00134005D0C0460120FFF765FF031EFAD07A6880235B02134005D0C0460220FFF75AFF031EFAD0C046BD4602B080BDCE
:4024C00010020B4080B584B000AF786039607B68002B02D07B68012B01D1012300E00023002B02D10020FFF7DBFD174B1B689B0F9B0701D1C92300E05D231800FFF702FEC5
:40250000124B1B68FB607B681B01114A9A401300DA43FB681340FB600C4B7A68120139689140FA680A431A60074B1B689B0F9B0701D1432300E01F231800FFF7E3FDC04695
:40254000BD4604B080BDC0460C020B4008020B40FFFF000080B500AF034B1B68034A13401800BD4680BDC04610020B400404040090B585B000AF78600B23FC1800F055F819
:4025800003002370FFF7B8FE031E04D00123FB60FFF7C2FE01E00023FB607B680D4A13407B600D4B0C4A12680C4911407A680A431A60094B1B68FB68012B01D1FFF782FEC3
:4025C0000B23FB181B78180000F033F8C046BD4605B090BD0404040010020B40FBFBFBFF80B582B000AF7860084B084A11687A68074802400A431A60C046044B1B68044A04
:402600001340FAD1C046BD4602B080BD10020B4008080800000000000230800803D00138FDD1C046C046C0467047EFF3108072B6704780F31088704780B582B000AF7860B1
:402640000A00BB1C1A80BB1C1A887B681A60C046BD4602B080BDC04680B582B000AF78600A00BB1C1A80BB1C1A887B681A60C046BD4602B080BDC04680B584B000AF494B22
:402680001B78DBB21B02484A1278D2B21343FB60464B1B78DBB21B02454A1278D2B21343BB60BB68434A934207D1FB68072B04D1414BBB600423FB6009E0BA68D4231B01A2
:4026C0009A4204D1FB68042B01D13B4BBB603B4BBA681A603A4BFA681A603A4B1B78DBB21B02394A1278D2B21343FB60FA6880239B019A4202D0FB68002B01D1334BFB6015
:40270000334BFA681A60334B1B78DBB21B02324A1278D2B21343FB60FB68304A934206D0FB682F4A934202D0FB68052B01D12D4BFB602D4BFA681A602C4B1B681B097B60B9
:402740002B4B1B68AA2B29D17B68012B26D9214B1B78DBB20E2B21D1264B1B78DBB29BB21B0299B2244B1B78DBB29AB2BB1C0A431A80224BBA1C12881A60214B1B78DBB20A
:402780009BB21B0299B21F4B1B78DBB29AB23B000A431A801C4B3A0012881A60C046BD4604B080BD59F1FF0F58F1FF0F5FF1FF0F5EF1FF0F580B0000580D00006C002E40B1
:4027C00074002E405BF1FF0F5AF1FF0F0220000078002E405DF1FF0F5CF1FF0F0F0F000005050000050F000080002E40EC0F00F0E00F00F06DF2FF0F6CF2FF0F84002E40C6
:402800006FF2FF0F6EF2FF0F94002E4080B582B000AF0200BB1D1A80BB1D1B881800FFF771FCC046BD4602B080BDC04680B582B000AF78607B681800FFF73EFCC046BD4619
:4028400002B080BD80B500AF00F0ECF8C046BD4680BDC04680B500AF00F0F0F8C046BD4680BDC04680B500AF00F0E8F8044B180000F0A2F8032000F0ADF8C046BD4680BDBA
:40288000552A000080B500AF034B180000F080F8C046BD4680BDC046552A000080B500AF014B1800BD4680BD0202000080B582B000AF78602B231800BD4602B080BDC04644
:4028C00080B582B000AF78602B231800BD4602B080BDC04680B582B000AF78602B231800BD4602B080BDC04680B582B000AF78602B231800BD4602B080BDC04680B582B08D
:4029000000AF78602B231800BD4602B080BDC04680B582B000AF78602B231800BD4602B080BDC04680B582B000AF78602B231800BD4602B080BDC04680B582B000AF78602C
:402940002B231800BD4602B080BDC04680B500AF2B231800BD4680BD80B582B000AF0200FB1D1A702B231800BD4602B080BDC04680B582B000AF786039602B231800BD4667
:4029800002B080BD80B500AFC046BD4680BDC04680B582B000AF786000F050F87B68180000F00AF8032000F015F800F03BF8C046BD4602B080BDC04680B582B000AF7860B6
:4029C000034B7A681A67C046BD4602B080BDC0460000002090B585B000AF0200FB1D1A700623FB600B23FC18FFF71FFE030023700B4B0B4A1268C0218A431100FA1D107849
:402A0000FA68904002000A431A600B23FB181B781800FFF70EFEC046BD4605B090BDC0460CE400E080B500AF034B802252011A60C046BD4680BDC04600E100E080B500AF3A
:402A4000034B802252011A60C046BD4680BDC04680E100E080B500AF12F0D4FFC046BD4680BDC046002243088B4274D303098B425FD3030A8B4244D3030B8B4228D3030CA5
:402A80008B420DD3FF22090212BA030C8B4202D31212090265D0030B8B4219D300E0090AC30B8B4201D3CB03C01A5241830B8B4201D38B03C01A5241430B8B4201D34B0391
:402AC000C01A5241030B8B4201D30B03C01A5241C30A8B4201D3CB02C01A5241830A8B4201D38B02C01A5241430A8B4201D34B02C01A5241030A8B4201D30B02C01A52419F
:402B0000CDD2C3098B4201D3CB01C01A524183098B4201D38B01C01A524143098B4201D34B01C01A524103098B4201D30B01C01A5241C3088B4201D3CB00C01A524183082F
:402B40008B4201D38B00C01A524143088B4201D34B00C01A5241411A00D20146524110467047FFE701B5002000F0F0F802BDC0460029F7D076E7704703460B437FD400229B
:402B800043088B4274D303098B425FD3030A8B4244D3030B8B4228D3030C8B420DD3FF22090212BA030C8B4202D31212090265D0030B8B4219D300E0090AC30B8B4201D3F2
:402BC000CB03C01A5241830B8B4201D38B03C01A5241430B8B4201D34B03C01A5241030B8B4201D30B03C01A5241C30A8B4201D3CB02C01A5241830A8B4201D38B02C01A5F
:402C00005241430A8B4201D34B02C01A5241030A8B4201D30B02C01A5241CDD2C3098B4201D3CB01C01A524183098B4201D38B01C01A524143098B4201D34B01C01A524120
:402C400003098B4201D30B01C01A5241C3088B4201D3CB00C01A524183088B4201D38B00C01A524143088B4201D34B00C01A5241411A00D201465241104670475DE0CA0F98
:402C800000D04942031000D34042534000229C4603098B422DD3030A8B4212D3FC22890112BA030A8B420CD3890192118B4208D3890192118B4204D389013AD0921100E038
:402CC0008909C3098B4201D3CB01C01A524183098B4201D38B01C01A524143098B4201D34B01C01A524103098B4201D30B01C01A5241C3088B4201D3CB00C01A524183087B
:402D00008B4201D38B00C01A5241D9D243088B4201D34B00C01A5241411A00D20146634652415B10104601D34042002B00D54942704763465B1000D3404201B5002000F073
:402D400005F802BD0029F8D016E770477047C046014B18687047C0463C1000200E4B70B500251E000D4CE41AA410A54204D0AB00F35898470135F8E713F08EFA084B0025CC
:402D80001E00084CE41AA410A54204D0AB00F35898470135F8E770BDA4620100A4620100A4620100AC62010030B50024A24208D0035D651C0C5DA34201D0181B02E02C00F3
:402DC000F4E7002030BD002310B59A4203D0CC5CC4540133F9E710BD03008218934202D019700133FAE770470FB40B4B13B51C68002C05D0A369002B02D1200000F03CFAE4
:402E000005AB049AA1682000019300F001FC16BC08BC04B01847C0463C10002070B505000E00002804D08369002B01D100F024FAAB69AC68002B02D1280000F01DFA254B8F
:402E40009C4201D16C6808E0234B9C4201D1AC6803E0224B9C4200D1EC68A3891B0702D52369002B11D12100280000F09BF800280BD0012040422BE0013B0136A360002B85
:402E800008DB23685A1C226019703178A3680029F2D10BE0A269934201DB0A29F1D12200280000F027F8431CEFD1E2E7013BA360002B08DA22000A31280000F01BF8431C73
:402EC000D7D00A2004E00A2023685A1C2260187070BDC04604620100246201004462010010B5034B01001868FFF798FF10BDC0463C100020F8B505000F001400002804D0EF
:402F00008369002B01D100F0B7F9234B9C4201D16C6808E0214B9C4201D1AC6803E0204B9C4200D1EC68A369A360A3891B070AD52369002B07D023682269FEB2981A63699F
:402F400098420FDB08E02100280000F02BF80028F1D0012040421DE02100280000F01EF90028F6D1A3680130013BA36023685A1C22601F706369984205D0A3893000DB073B
:402F800008D50A2E06D12100280000F007F90028DFD13000F8BDC046046201002462010044620100364B70B51D6806000C00002D05D0AB69002B02D1280000F05DF9314B59
:402FC0009C4201D16C6808E02F4B9C4201D1AC6803E02E4B9C4200D1EC680C22A35E9AB2110723D4D10607D409220120326037321343A381404242E0530713D5616B0029F0
:4030000008D023004433994202D0300000F02CFA002363632422A3899343A38100236360236923600822A3891343A3812369002B0BD1A0238022A1899B0092000B409342A2
:4030400003D02100300000F0D1F90123A289134005D00023A36063695B42A36103E0920700D46369A36000202369834207D10C22A35E1A0603D540221343A381013870BD97
:403080003C100020046201002462010044620100F7B58A8905000C0013075AD44B68002B02DC0B6C002B19DDE76A002F16D000232E682B6080235B011A4001D0606D14E00E
:4030C0000123216A2800B847431C0ED12B68002B0BD01D2B01D0162B02D12E6000205AE04022A3891343A38155E0A3895B0706D56368C01A636B002B01D0236CC01A00236D
:403100000200216A2800E76AB847A389421C06D129681D293AD8204ACA40D20736D50022626022692260DB0405D5431C02D12B68002B00D16065616B2E600029CED0230074
:403140004433994202D0280000F08EF90020606321E00F69002FC1D00B680F60DB1B01930023920700D14B69A36003E0019B3F181B1A0193019B002BB0DD019B3A00216A6C
:403180002800A66AB0470028F0DCA389402201201343A3814042FEBD010040200B6970B505000C00002B01D100201CE0002804D08369002B01D100F05FF80B4B9C4201D130
:4031C0006C6808E0094B9C4201D1AC6803E0084B9C4200D1EC680C22A35E002BE4D021002800FFF755FF70BD04620100246201004462010010B5024900F0B0F810BDC046E4
:403200009D310000002310B5040003604360836081814366C281036143618361190008225C30FFF7D9FD054B24626362044BA362044BE362044B236310BDC0468D3B000083
:40324000B53B0000ED3B0000193C000070B568254B1E5D430E002900743100F051F9041E08D000212A00016046600C30A0606832FFF7B2FD200070BD836913B50400002B19
:4032800028D18364C3640365134B144A1B6882620193984201D101238361200000F020F86060200000F01CF8A060200000F018F80022E06004216068FFF7A4FF01220921D3
:4032C000A068FFF79FFF02221221E068FFF79AFF0123A36113BDC04600620100F5310000F8B51D4B06001D68AB69002B02D12800FFF7C2FF4835AC686B68013B05D40C2245
:40330000A75E002F10D06834F7E72B68002B01D02D68F0E704213000FFF798FF28600028F6D10C23336016E0012320005B42E3810233A38167662760A760676027616761E3
:40334000A7615C3008223900FFF746FD20006763A763A764E764F8BD00620100F7B504000700002601914834002C16D06368A5680093009B013B00930DD4AB89012B08D9C7
:403380000E22AB5E013304D029003800019B984706436835EDE72468E6E73000FEBD000070B50E001D000E23C95E90B01400002906DA00232B60B3891B060FD540230FE0AC
:4033C00001AA00F055FC0028F3DBF023029A1B021340054A9B185A4253412B608023DB000020236010B070BD00E0FFFFF7B502268B8905000C00334210D101AB6A46FFF782
:40340000CFFF00990700280000F07AF800280CD10C22A35E9A0523D43343A3812300473323602361012363611AE080220D4BAB62A38920601343A381009B20616361019B01
:40344000002B0AD00E23E15E280000F023FC002803D00122A3891343A381A3891F43A781F7BDC046F531000070B50500002944D00C1F2368002B00DAE418280000F03BFCD9
:403480001E4A13681100002B02D16360146031E0A3420DD92268A018834203D118685B688218226063600C6024E0A24203D813005A68002AF9D11E689819A0420BD1216894
:4034C000711858181960824214D110685268411819605A600EE0A04202D90C232B6009E021686018824203D1106852684118216062605C60280000F0FFFB70BDE82100201A
:40350000032370B5CD1C9D43083506000C2D01D20C2501E0002D01DBA94202D90C23336048E0300000F0E7FB234B1C681A002100002913D00B685B1B0DD40B2B02D90B60DC
:40354000CC181EE08C4202D1636813601AE04B6863600C0016E00C004968E9E7174C2368002B03D1300000F0FFFA20602900300000F0FAFA431C18D00323C41C9C43A042BA
:403580000DD12560300000F0B7FB200007220B30231D9043C31A0ED05A42E2500BE0211A300000F0E1FA431CEBD10C233000336000F0A2FB002070BDE8210020E421002060
:4035C000936810B5013B9360002B05DA9469A34208DBCBB20A2B05D01368581C10601970C8B201E0FFF786FC10BDF8B506000F001400D518AC4208D021783A003000FFF77C
:40360000DFFF0134431CF5D100E00020F8BD0000F0B59FB006000F0002920593002804D08369002B01D1FFF727FE7F4B9F4201D1776808E07D4B9F4201D1B76803E07C4BE0
:403640009F4200D1F768BB891B070AD53B69002B07D0002306AD6B6120336B761033AB763DE039003000FFF79DFC0028F1D001204042D6E0059A111D12680591002A00DADC
:403680007FE00992013423782E2B00D18DE021780322684800F024FB002807D0654B2A68C01A4023834013432B6001342178631C062261480293297600F012FB002800D1C2
:4036C0009DE05E4B002B00D090E00722059B07339343083305936B69039A9B186B61029C2378002B04D1029BE31A049312D003E0252BF8D00134F3E7049B029A39003000A3
:40370000FFF773FF431C00D186E06A69049B944663446B612378002B7ED00122002352426A6002A95432521801342B60EB60AB601370AB6521780522414800F0D1FA0028A4
:4037400008D03F4B2A68C01A0123834013432B600134EFE72B68DA0604D55322202102A8121811701A0704D553222B2102A81218117022782A2A00D17CE7099B00200A2130
:4037800005E05242EA60022213432B607AE72278303A092A04D84B4301349B180120F6E7002800D16FE709936DE763782A2B0AD1059B02341A1D1B680592002B01DA0123BE
:4037C0005B42079363E700230A201A0001346B6021783039092904D84243013452180123F6E7002B00D152E7079250E705AB00933A00144B2900300000E000BF07E005AB3C
:4038000000933A000F4B2900300000F08BF80390039B013300D05EE7BB895B0600D526E70B981FB0F0BDC0460462010024620100446201006A6201006E620100000000003C
:4038400064620100EB350000F7B5170001938A680B6900900C00934200DA130022003B6043321278002A01D001333B6023689B0602D53B6802333B60062523681D401ED049
:40388000230043331B785A1E9341226892061CD53020E1184331087021005A1C45310978A2184332023311700FE022000123193201990098089EB047431C0ED00135E368C8
:4038C0003A689B1A9D42F0DBDAE72200019943320098089DA847431C02D10120404220E006232068E1683A6803400025042B03D18D1AEB43DB171D40A3682269934201DD60
:403900009B1AED180027BD420AD0220001231A3201990098089EB047431CDED00137F2E70020FEBDF0B58BB006920A0043320793059004920A7E0C00109B6E2A00D1ABE084
:4039400011D8632A22D009D8002A00D1B5E0582A00D0C5E045310A70814A4FE0642A1DD0692A1BD0BCE0732A00D1AAE009D86F2A29D0702A00D0B3E0202209680A4322600E
:4039800037E0752A1FD0782A33D0A9E00E001A684236111D196013683370A4E021681A68080606D4490604D5111D19600023D55E02E0111D19601568002D3BDA2D23049A95
:4039C0006D42137036E021681A68080606D4490604D51568111D1960ADB202E0111D196015685F4B227E039308276F2A1DD00A271BE022007821453211705A4A19680392AD
:403A0000081D226818600D68100602D4500600D5ADB2D30702D520231A4322601027002D03D1202322689A4322602300002243331A7002E00A274A4B03936368A360002BC1
:403A400009DB0422216891432160002D05D1049E002B11D07BE0002D79D0049E28003900FFF786F8039B013E5B5C280033703900FEF7F8FF051EF1D1082F09D12368DB077E
:403A800006D563682269934202DC3023013E3370049B9B1B23612BE009681A68080607D4490605D5111D19601368A28A1A8004E0111D1960136862691A600023049E236188
:403AC00016E01A68111D1960166800216268300000F006F9002801D0801B6060636803E0260042363270012323610023049A1370079B09AA00932100069B0598FFF7A4FE12
:403B0000431C02D10120404227E02369320006990598079DA847431CF4D0236800259B070FD4099BE068984217DA180015E022000123193206990598079EB047431CE1D087
:403B40000135E368099A9B1A9D42F0DBE9E72600039B42361B7833708EE70BB0F0BDC0467562010086620100002370B5064C050008002360FDF720F8431C03D12368002BBD
:403B800000D02B6070BDC0460C22002070B50C000E25495F00F0B2F8002803DB636D1B18636503E0A289024B1340A38170BDC046FFEFFFFFF8B51F008B8905000C001600BA
:403BC000DB0505D50E23C95E0022022300F074F8A289054B28001340A38132000E23E15E3B0000F01FF8F8BDFFEFFFFF70B50C000E25495F00F060F8A389421C03D1054A70
:403C00001340A38104E0802252011343A381606570BDC046FFEFFFFF10B50E23C95E00F015F810BD70B50500080011000022064C22601A00FCF776FF431C03D12368002B4B
:403C400000D02B6070BDC0460C220020002370B5064C05000800236000F064F8431C03D12368002B00D02B6070BDC0460C220020002370B5064C050008001100236000F002
:403C800059F8431C03D12368002B00D02B6070BD0C220020002370B5064C05000800236000F050F8431C03D12368002B00D02B6070BDC0460C22002070B50500080011008A
:403CC0000022064C22601A0000F044F8431C03D12368002B00D02B6070BDC0460C220020C9B28218904204D003788B4202D00130F8E70020704770477047000070B505006F
:403D0000080011000022064C22601A0000F02AF8431C03D12368002B00D02B6070BDC0460C22002058220120014B40421A6070470C22002058220120014B40421A60704701
:403D40000C2200205822024B00201A607047C0460C22002058220120014B40421A6070470C22002058220120014B40421A6070470C220020134A1088810703D08107890F49
:403D8000401A001D11791030484381B25088820703D08207920F801A001D800040180A494030098980B2CA0701D0503080B2890706D504495422091F09785143081880B27F
:403DC000704700008A0C0020A410002010B501F06FFF10BD10B501F071FF10BD10B501F083FF10BD10B501F087FF10BD10B500F05BFA10BD10B5074904460978022000298E
:403E000007D1204601F0C8FF002802D120460AF0BFFD10BD280E002070B504460120002C12D02368002B0FD0616800290CD0074D06222889208118462968FEF7C4FF69680B
:403E4000606809780170002070BD0000A4100020FFB585B0002768460E9D07734F481C460078002802D0082009B0F0BD10990F9801900095029105A807C800F007F90028EE
:403E8000F2D16946264603AB84460873002C19D0002115E08A00B75A082F09D990198078002805D0083FB7521878401C187005E0002914D00027B75290198770491CC9B24E
:403EC000A942E7D360460028CED10F98002809D0109901F09DFA002804D00120C4E701208446EFE701F000FF2D480021416081600599016021888180022D07D3A179817188
:403F0000A17AC171A1890181218A418100211EE0481C19E082008B00A75AE65ABE46BE4211D26F463E80B4461E190296B678BE7001967646E6521719029EBB78B370664675
:403F4000A652019EBE70401CA842E3D3491CA942DED3134822460C3000906846037B0799069800F01BF90028B8D168460B4C007B60700B480C3001F0E7FE0028AED1084924
:403F800007480C3107F0D4FD0028A7D107F0EEFD0028A3D10121217066E70000840C002098100020F8B5054636480F460078002802D002242046F8BD002F60D0002432499B
:403FC000002D16D02A89D0070DD02868002808D003881B3BE12B04D24088FB2801D81B2801D2012409E0900707D56868002804D1F7E70020088108604860002CDAD12248F4
:404000002E8906811F481B21801D01804180042101711C490020891C0870F00705D019480622801D2968FEF7CEFE1749B00703D56A68144812788270124D0E46AD1D281FE6
:404040000D60486001F0CEFE284601F0BDFE30890EF034FA30890DF01DFC28880DF020FC30890EF095FB03461033FFF783FE1F21C018890140183880A91F88809AE7012465
:4040800098E70000840C0020A4100020FFB58446384F1C460020BB883F78054602460646002F11D100290ED0029999420BD36146002908D0002C06D00A99002906D02E4B6C
:4040C0000B99994202D2012004B0F0BD002144E0AB001F19BF78002F3BD0E35A002B38D07B43591889B22B0000F04AF8050410161C253100A7782388BC46FF27233BEB3708
:40410000BB4222D26346032B1FD322E0A388002B1FD0302B19D31CE02389002B19D0282B13D316E0A289002A13D01346134F233BBB420AD20DE0268A002A0AD033460F4FAA
:40414000233BBB4201D2964203D901200EE0002001E000280AD16D1CEDB2099B9D42B7D31C2463435B1802998B42ACD89642AAD8AAE70000840C002079020000BAFF000001
:4041800030B47446641E2578641CAB4200D21D46635D5B00E31830BC18470000FFB583B0002469460C801F4606468C80002806D00598002803D004983043800701D001241A
:4041C00066E0002FFBD03449049809888842F6D3FEF758FBFEF73EFB00F016FC002855D100F07EFD002851D12C49084601F044F905042D0C4AD12A480499066081800021E2
:40420000C18007810C98007AC00704D0684601F084FD040007D10C98007A800703D501A801F084FD0446BF1DFEB2002C20D13146059800F05DF804001AD10EF0B7FA04007A
:4042400016D16A461088928808368518144AF1B29088D288AEB29319984207D3401B801A80B201F0F9FB050007D000E0FF25012400F062FA002D04D008E0F8B200F01CF9F2
:40428000F6E700F085FA07490120087000F0CEFB204607B0F0BD0000880C0020DD430000B0100020900C002010B503480078012801D101F073FA10BD900C002070B5084BF4
:4042C0000446DA889E8803205518B54206D8186880182060D8884018D880002070BD0000B01000200148008970470000B0100020F0B587B007460D460020890000900691FD
:404300006846FFF7DBFF844600285DD1304800990160002117E02E4B88001A680629115406D22C4C0419667882185670628805E0C419203CA67A8218567022891B68C01805
:40434000491C4280C9B2A942E5D300242DE0601CC2B2059025E01E4FA30039689600581840887118039604904E88B04217D938466F46FE80B6464F786E4677710297049F04
:404380004F800168039F5E18767879184E700168764659184E800068029F18184770521CD2B2AA42D7D30598C4B2AC42CFD36046002809D168460699FFF780FF8446002895
:4043C00002D1054900980860604607B0F0BD0000940C0020D0620100980C00207047000010B5002809D005494A68002A05D0011F08788000105801F0DDFA10BD940C002082
:4044000010B50446FFF76EFFC0B2801DA0420CD307484068002808D0A100405801F03CFA002801D00470001D10BD002010BD0000940C0020F8B516460D460446FFF752FFF2
:40444000C0B2801DA04203D20020C0430090F8BDB2B2E9B2684601F045FA0099481C03D0024AA000526811500098F8BD940C0020F8B50746FFF736FF801DC6B20A490020A0
:4044800005460C680DE06178002907D06188B94202D32078FFF7B4FF002804D1241D6D1CEDB2B542EFD3F8BD940C002010B5002801D0FFF795FF10BD70B5064609480025ED
:4044C00004680BE06178002905D062882078121D0023FFF7AFFF241D6D1CEDB2B542F1D370BD0000940C0020FFB581B00A9F16000C4620D000F0F6F8054604281BD0002FB0
:404500000CD03846FFF7B4FF20492A0151184860002810D03A460499FEF755FC1B4928010E504618778101980570200406D47D20C000444304E0FF2005B0F0BD6404640CFA
:4045400000F0BEF80746042807D000F053FAA0420BD800F04FFA201A03E0204600F0AEFA0020F06035720020E6E700F043FA009000F0BAFA00980121001B009000F0F0F84D
:4045800002493A0151180098C860E6E7BC100020F8B5042801D3FF20F8BD060116483418217A042903D0E068002802D017E00020F8BD00F01FFA054600F096FA00F0A0F85C
:4045C00004280CD001010C480F18F8680021451900F0C6F80020F860284600F06FFA6068054D002801D0FFF761FF042020720020A8516081E060DAE7BC100020FEB500268B
:404600006A46304601232549050169180D7A042D02D0C96800291BD000211154401CC0B20428F0D300246846005D002830D01B482101081841894768056802910021016032
:404640004160042241810272C160002E02D015E01354E3E700F054F804280ED001010F4808180190C6680021304600F079F801980021C160304600F021FA0126002D07D0F9
:4046800038460299A847002F02D03846FFF70EFF641CE4B2042CC6D3FEBD0000BC1000200EB5002005216A460090118150810348694600680EF001FF0EBD00009C0C00204B
:4046C000074A0020010189180B7A042B02D0C968002903D0401CC0B20428F3D370470000BC1000200549002002015218127A042A03D0401CC0B20428F6D37047BC100020C2
:4047000030B50A4B04200A4C00210A011219157A042D06D0D268002A03D09A4201D808461346491CC9B20429EFD330BDFFFF0000BC1000207047000030B50020074C054645
:404740000423020111190B72A5504D60401C4D81C0B2CD600428F4D330BD0000BC10002030B5094C00231A011219157A042D04D0D568002906D02D18D5605B1CDBB2042B11
:40478000F1D330BD2D1AF7E7BC100020002070471CB5002469460C70142001902346054A05480EF08FFE04480068401C00D1FF2420461CBD0D4800009C0C00203EB5124A3C
:4047C0000146FF2000230124126800290DD0012914D0042908D104206946009308814B8110460EF06AFE80B23EBD6846009304814381694610460EF05BFEF4E768460093D1
:40480000048143816946EBE79C0C002070B545890468416800890300FFF7B2FC08280509091E22282628002006F032F81EE0022908D0C8B22A4621460CF080FF2046FFF748
:4048400035FE13E002202A4621460CF077FF2946204600F00DF809E000200EF02DFB05E02046FFF7CBFE01E0FEF78CF8002070BD014B0022DB681847A00C002070B544892F
:4048800005680089022803D0032809D0FF2070BD2246094C0023A46829460120A04708E0FFF79CFA241DA2B200232946022006F0F2FF002070BD0000A00C002070470000DE
:4048C000024800214160018041807047A00C002070B50C46002186B016460391012802D0022859D116E003A9012007F029F801281BD1039D324621462846FEF764FA009515
:40490000287801900220694608814E816846FFF7B5FF41E0214D002B686809D0049004A9022007F00DF801281DD0022006B070BD002812D0298840182146FEF744FA28888B
:404940000024801980B228806988091D884206D12C801348FFF792FF03E00320E6E788421AD96C6018E004986860E278A378110219430B4A698000231060E35653600323DB
:4049800013815181A1788170E178C1706178417021780170042028800020C7E7A00C0020FC1000203EB515460C46022803D004280CD000203EBD009101900220694608819B
:4049C00007484A8100680EF078FD07E00CF0B6FE044B0022DB6829462046984701203EBD9C0C0020A00C0020014AD16090607047A00C0020034801688068081A0A214843B0
:404A0000000970470811002010B5FDF72BFF4C2204490548FEF7D7F903490120C870002010BD0000EC6201000C15002010B5FDF709FF10BD70B5134C2368002B08D0207B70
:404A40001149C20705D04008400020738868A08070BD88680B4AA18880B29268814203D90A4D691A091802E0814202D2411A5118A160A080A0689842EAD30EF03BFD00F08F
:404A800013F870BD08110020C0102E40FFFF000010B508461946FFF7A7FF10BD704710B5FFF780FF10BD000003480021016041608160C1607047000008110020024610B543
:404AC000FF20002A0CD0FFF7EFFF064C0321207B0843207310010A21FEF74AF82060002010BD00000811002000B504480A21806848430209FFF7D8FF104600BD08110020E2
:404B00000248007B8007C00F704700000811002010B54B490868002802DA4A4B01221A70022290430860484800694549C00B4031096A0246C907C90F0A4259D0012000F050
:404B4000EDFA3F480E216C30FDF786FD3E4820218430FDF781FD3C4814219C30FDF77CFD3948FF21C131A430FDF776FD3648FF212F31B030FDF770FD33483449BC30FDF7C1
:404B80006BFD31483249AC30FDF766FD30492E48491CB430FDF760FD2B482E49B830FDF75BFD29482C49CC30FDF756FD26482B490830FDF751FD24482949A830FDF74CFD47
:404BC000214828498830FDF747FD1F4826498C30FDF742FD1C481921C9029030FDF73CFDFDF74AFDFDF75AFEC0B2022812D01FE000290BD0002101420AD01148012160307F
:404C0000FDF72AFD0120FDF711FE97E70121F2E7FF2010BD15491648FDF71EFD14481549001DFDF719FD124800210830FDF714FD54200449C043891C0870002010BD00009E
:404C400000F02E40B00C002000002E40320300002F3F00003102000010520000EC160000FA12000031D000003AE300009956000080012E40F80F000070B50646581C80B22C
:404C800045086D00002408E0304600F0C1F81055000A1119A41C4870A4B2AC42F4D3D80705D0D0182038D15CC47FD454C17770BD30B50A4C002100195B1E07E054186478E5
:404CC0002502545C2C430480891C89B29942F5DB994201D1515C018030BD000000102E4010B5FF2000F01AFA0F49FF2048700E481021801D41800121417001700A49002066
:404D0000C91C4870FFF704FF04000AD100F02EF907210648FDF790FC044807211830FDF78BFC204610BD0000B00C0020CC112E4070B5002405465B1E0AE0284600F068F8AB
:404D4000010A161971702D1D1055A41CADB2A4B29C42F2DB9C4203D1284600F059F8105570BD000070B500210A4D5B1E0AE0541864782602545C344346193480001D891CEA
:404D800080B289B29942F2DB994202D1515C4019018070BD00102E40F0B50599091FCFB200217E1E0BE0541864782502545C2C43164D45192C80001D891C80B289B2B1424D
:404DC000F1DBFC0712D01C78515C24020F4A0C4381180C809C785D78001D210280B2294384182180001D80B2D9780CE059781A7809021143054A84182180001DD9789B786F
:404E0000090280B2194380180180F0BD00102E40014940180088704700102E4010B50B490020487000F0A2F8002000F09DF9002000F08AF907210648FDF7FEFB04480721AB
:404E40001830FDF7F9FB002010BD0000B30C0020CC112E4010B50C48007801280FD100F093FF00F0DDF8002804D10848016A490849000162054802213030FDF7EDFB02495E
:404E80000020C91E087010BDB30C002040F02E4010B50B46062812D006DC01280CD0032801D1FFF7BBFF10BD0A28FCD00B28FAD105480078107010BDFFF712FF10BD114669
:404EC000184600F06DF910BDB60C0020F8B5244DAC6A0127A007234E002816DA307806280ED1286A384328621F480069F903084381B21D481030FDF7AFFB042000F00EF9CF
:404F0000174802212830FDF797FBE00718D000F07DFF01280FD1002000F0CAFF062000F0FDF81049FF20C91E48707078002802D1686B384368630A4801212830FDF77CFB9F
:404F4000E0050BD53078042802D1052000F0E6F80348FF2101312830FDF76EFBF8BD000040F02E40B30C002000002E4010B503212348FDF771FB0120FDF748FC2048303803
:404F8000406A204C80076178800F890001431C480C38FDF761FB6078002808D0401E022181401820FDF7CEFEC000083800E0B82081B21548FDF750FB1348032109021438B8
:404FC000FDF74AFB10481149B830FDF745FB612189010F48FDF740FB0D480321001FFDF73BFB0C490C48FDF737FB0B480B496038FDF732FB084801218838FDF72DFB10BD0C
:4050000070F02E40B60C0020D8102E4090890000041E2E40FF0F000058122E40209000000449012009684907490F022900D000207047000000010B4000B5FFF7F1FF0028C3
:4050400005D009480168C908C900016000BD0748016A490849000162054801690122D2039143016100BD000000010B4040F02E4000002E400848017806290BD1407807495C
:40508000002803D1486B400840004863C86A01221043C86270470000B30C002040F02E400148007870470000B30C002002484078022800D001207047B00C002000B5030049
:4050C000FFF75EF8080D050D0B070507090D012000BD032000BD042000BD022000BDFF2000BD0000074A9168D26889B2064B92B2994204D105498A4201D1012100E000219C
:405100000170704780002E4033D000003FE300000149487070470000B30C002010B50446FDF798FB072C01D9FF2C01D102480470FDF788FB10BD0000B30C00200149487019
:4051400070470000B00C002010B5064A012805D01921C9021046FDF77FFA10BD1D21C902F8E7000090002E4010B50A4A141D012808D009491046FDF76FFA08492046FDF713
:405180006BFA10BD04491046891CFDF765FA0349491DF3E788002E4031D000003AE3000070B50C460546FDF779FBC0B202280E49287804D0FF2810D04C280CD810E0FF287B
:4051C00009D10A4AD0680004800F032801D0087807E09069000A553803E00878207070BD4F382070087070BDB20C002000002E40F0B50122002834D0002932D0042442060C
:4052000000D00524792342065B06D21800D0641C034600221EE00C2516466E43124D00277519AF72104F002ABB51696007D0661EB24209D10D4E86197606760E05E05E0650
:40524000760E8027BE1B00E080269B198919521C2E81D2B2A242DED303480549006B002288611046F0BD00009413002079020000BC0C002018B50020694608700A4800690D
:4052800000280ED0132149014018047E684604704F21C900054800F05BF8A04201D0012018BD002018BD0000BC0C002018110020074900200C2242435218927A012A05D03D
:4052C000401CC0B20628F5D3002070470120704794130020F8B50F000446164609D01A4D1A496868A04202D94018A04201D38E4201D90120F8BD39462046FDF755FD002801
:4053000020D0324639462046FDF75DFD0E49F0B2012620318E7600210C220B4653430A4A9A1813895568EF18A74207D9641B1B1B9672834206DAC01A1469C0B2491CC9B2ED
:405340000629E9D30020F8BD9413002079020000034610B50020024604E09C5C2018521CC0B292B28A42F8D310BD000070B500F05FF8084C064A216907480D46FDF723FDC9
:4053800005492846FFF734FFFFF774FF207070BD79020000BC0C002018110020002070470020054A002902D0012902D002E0906000E0D06000207047BC0C002070B5084CDF
:4053C000154608460549E26889182A46FDF7FBFCE0684019E06028B270BD000018110020BC0C00203EB50A226946FFF7E7FF044606480A2200686946FDF7D6FC002802D012
:405400000020C0433EBD20463EBD0000C00C0020002802D0044A914201D2FF20704703494A6108610020704779020000BC0C0020024800218160C16070470000BC0C002097
:4054400070B5074C15460548A26880182A46FFF741FFA0684019A06028B270BD18110020BC0C002010B503490A220968FFF7E8FF10BD0000C00C002010B50F4A0023136033
:405480000E4A13600E4B18600E4801600E49012008600E490860000290600E490C4808600D4914300860FF381538506000F0BCF800F0CAF9002010BDF00C0020D80C00205B
:4054C000040D0020080D0020F40C0020E40C0020DC140020E80C0020FC0C0020014610B50020002910D0094B1A689C685118A14209D25868196080188A0704D08A07920F2C
:40550000891A091D196010BD002010BDD80C0020F8B50024164E671E321F3D463168136806E01422624310328A58521C1BD0641C9C42F6D36A1C14D02C4614225443224653
:405540000C3288500C214843FFF7C8FF3168002808510AD031680020103408517068401C70602846F8BD2546E4E73846F8BD0000E80C0020F3B50026F64381B000281BDB5C
:405580001E490968884217D80299002914D01B4F142204463F1D54432546396810354859401C09D0FDF756F938682F1F4159C359994203DBFDF746F93046FEBD214608310A
:4055C0000091465801590C20704308180C220299FDF7F9FB0948761C001D0068C159B14200D100260549009A091D865008684159491C4151FDF726F90020FEBDE40C002023
:40560000002803DB07490968884202D90020C043704704491422091D096850431030085870470000E40C0020F0B500200D4A451E0346171F50600FE01426014671431468C2
:405640000E1DA3510C461668083433511668083435511468401C635039688842ECD30020F0BD0000E80C0020F3B50026F64381B0002841DB2349096888423DD802990029A9
:405680003AD0204F142204463F1D54432546396810354859401C2FD0FDF7DCF83868415900292BD0211D009146580C21005971430F46C1190C220298FDF785FB11480021FF
:4056C000001D0068761C00590C34C0190160416081600C48001D00680159B14200D100260849009A091D865008684159491E4151FDF7A8F80020FEBD3046FEBDFDF7A2F809
:40570000FAE70000E40C0020FEB504460D4600201E49089E0860471E009001900290002C11D0486885420ED2002A0CD0002E0AD0642E08D808460C3001681C2068430C1899
:40574000207A002801D03846FEBD0120226020721846FFF7DDFE6060401C13D06681A6810A4827610C3067610179A94200D205710021684601810A462846029B00F040F88D
:405780002846FEBD00202072DDE70000F00C002038B50124009400F039F838BDFEB50027164EFF433D4600240EE01C20316860430818017A002906D04068FFF721FF002865
:4057C00001D0254603E0641C3079A042EDDA681C12D01C2130684D434419FDF73BF869466068FFF741FF0546FDF72CF8002DD9D1216868468847D5E7FEBD0000FC0C0020DD
:4058000038B50024009400F001F838BD1FB500220C49541E0A60002811DB496888420ED808491C220C31096850430818406801A9FFF7A0FE401C02D0002004B010BD20463E
:40584000FBE70000F00C0020F0B50021114A4D1E174611710C3F0B46BD6016E008461C2460431668041D355114680646235014680836A3551468361DA353044616680A3402
:40588000335318301468491C255078688142E5D30020F0BDFC0C002038B500210091002811DB0F49097888420DDA0D4D04010C3529680859002807D0201D0818694600F0AA
:4058C0006FF9002801D0002038BDFCF7C3FF28680F34015D491E0155FCF7B4FF009838BD0C0D0020F7B582B0002502986E1E06602E48D21C024017462D4A2C4610460C380E
:405900000178106805E02301C358002B0FD0641CE4B28C42F7D3711C28D03401211D40180191039900F02AF900281FD101E02646F1E71F48016820460C300F521C480399F9
:40594000026820460E30115419480399026820460F3011540398784300F0A0F8144900280968085102D00024009011E001251AE00F48016801980818009900F02CF9002830
:4059800001D0012502E00098C0190090641CE4B203988442ECD3002D05D10298066004480179491C0171284605B0F0BDFCFF0000180D0020F8B50D4600216A468C461180F3
:4059C000002839DB23490978884235DA214B04010C3319680A59002A2ED020460C300B5A801C0E5C184670438018954224D3854222D2002006E007465F43BF18AF4206D017
:405A0000401CC0B2B042F6D36046002814D0114E271DC8190C366A46294600F006F900280AD168460088012808D030682946C01900F0D1F8002803D00120F8BD0020F8BDDE
:405A4000FCF708FF30680F34015D491C0155FCF7F9FEF3E70C0D0020F8B50F46002400F031F8002817D10C4900220B460C334A600EE021011D680E466A501D680C36AA53D4
:405A8000B61C1D680F31AA551D68641C6A54E4B2BC42EED31A71F8BD0C0D002000280BD0C01C074A81085068890053884118994203D8936851601818704700207047000071
:405AC0000C0D0020F8B5064600200F4D009029700C0121466846FEF7F1FB00280CD129460C3100980860301B001F84B221466846FEF7E4FB002801D0FF20F8BD6C80009841
:405B0000A8600020F8BD00000C0D0020F8B5002827DB19490978884223DA174C05010C342168485900281CD028460C30085A009028460E300E5C401C0E5420682F1DC019CA
:405B400000F064F800280CD12068002445590EE0094829460C300068C01900F03CF8002801D00120F8BD00982D18641CE4B2B442EED30020F8BD00000C0D002030B50D467C
:405B800004000BD0A800FFF789FF6060002805D000202570C0436080002030BD012030BD70B50D46040005D0002D03D00220205E002801DA012070BDFCF74CFE0221615E0F
:405BC00060688900405828606088401E6080FCF739FE002070BD70B50D46040007D0002D05D002212078615E401E814201DB012070BDFCF72FFE6088401C00B260806168BE
:405C000080000D50FCF71EFE002070BD10B5040009D0227800216068FDF7DEF80020C0436080002010BD012010BDF0B500231D46002802D00224045F0AE00120F0BD46684A
:405C40009F00F6598E4201D1012503E05B1CDBB29C42F4DA15700020F0BD00000148007870470000200D00207CB505460024FEF7B5F8A8796946087000A8062229460130CA
:405C8000FDF7A1F80021684605F0DAF80C2806D0072806D01F2806D0122806D006E0022404E0042402E0272400E0012420467CBD01480121417270471816002010B502288A
:405CC0000BD0032802D0042809D102E000F07EF905E000F029FAFF2801D100F039FAFFF7DFF9FFF7EBF910BD10B500F061FAFFF7D7F9FFF7E3F910BD70B504460025FEF7F6
:405D00006DF8002C06D0A079012803D8214602F0C7FE00E00125284670BD01460120002902D05020088000207047000001460120002905D003485422007850430880002014
:405D400070470000220D002010B502460D49FE204870032410460DF0D3FE002810D10DF077FE00280CD105F047FE002808D100F015FC002804D105F009FB002800D10024CA
:405D8000204610BD200D002002480021018280210180704700102E4070B50025044600280ED0A07901280BD8FEF718F8A0790028204602D003F054FA03E003F029FA00E0C7
:405DC0000125284670BD0000014610B50120002904D006220248FCF7F6FF002010BD00002C0D002001460120002903D0087802490870002070470000220D002010B5FFF790
:405E00004FF9012801D1FFF751F910BD0148007A704700001816002038B504460120002C20D0617801291DD800290BD0FF25E535FDF7D4FF0C4828180088C0B22070072888
:405E400003D00EE0FF25CD35F2E70020694608706846FFF747F969460878012801D108202070002038BD000000102E40014A002192681047200D002008B500226B461A709E
:405E800026280CD0094A342852680BD0352805D1900703D50021352005F08AFE08BD19462620F9E7D007F9D03420F5E7200D0020014908727047000018160020F8B50446B8
:405EC0000120002C26D06178012902D92278092A20D8002905D0FF25E5352078092803D004E0FF25CD35F8E708202070FDF776FF2078114F114E08280DD00020FFF734F933
:405F000070780128207810D00D4969180880FE2070700020F8BD0120FFF726F90720B8810549203188800120F2E7B8810248217820308180EBE70000C0112E40200D0020A4
:405F400000102E4070B50E46050001D0002400E00C4C002C11D0E28A500609D5D107C90F022003F01BFAE08A40218843E08204E0D107C90F012003F011FA3146284602F0EF
:405F8000EBFE70BD78150020F8B50546002004460D4E009013E022466946284601F052F90098002801D00DF08DFDA878214602F0B5FCA878214602F0A3FC641CE4B2308AF3
:405FC000A042E8D8F8BD000044160020F8B54E4CFFF766F8012847D14C480078002843D002F042FE00283FD004F0B0FB00283BD0474E7078C00703D000F040FD012833D002
:40600000307E00287DD17078002500285BD0000706D540488089070B00F02EF9384370D13B484178684604F0D9F9217A3A4CA2788918C9B2814262D802F016FE002860D022
:40604000344860300789324E203602F057FC6846008802F081FC02F01DFD30490988884203D10120FFF75AF84BE02D49012008702748807B00281DD0002F1BD04036F07EF0
:40608000002817D123486030008821494000C031498981420AD26078002807D103F0ACF92049088A03221202104308822078002800D0257002F086FC0120FFF729F800F0FF
:4060C00049FC174C15E002F0CFFD002819D0102402F0E0FC214602F0C9FB02F03DFC104C0120207002F06EFC0020FFF711F800F031FC20780128B4D1FEF79EFF25700020B8
:40610000F8BDFF20F8BD00004C150020B00C002058150020A0102E40460D0020580D0020320D0020E0112E4010B50848FF244078002809D102F098FD012805D1FEF78AFE23
:406140000720FEF7EBFF0024204610BD5815002038B5FEF7A5FF012801D0002038BD02F083FD00280AD0114C6078C00703D000F085FC012802D0207E002801D0FF2038BD46
:40618000617800290FD0684604F028F9022806D96846008802F0E0FB012002F01DFC0320FEF7BCFFD9E70020F7E700005815002038B51E4CFEF774FF042813D0052811D009
:4061C000062812D003282AD007280AD100206946087002460120FEF75BFEFEF761FF0128FBD138BD00F0D6FB38BD02F00DFC00F0D1FB02F089FC8007800F0228F4D10C48E6
:4062000041880029F0D05B21095D0029ECD101210170A07D0140022003F0C0F838BD02F0F7FB0120FEF77AFF38BD000078150020460D0020F8B50646002403F01DF9054638
:40624000304603F033F903460A480021068A0DE001228A401046174628401F40002803D0002F01D1224394B2491CC9B28E42EFD82046F8BD4416002070B500252C460A4E22
:4062800003E0002C01D0002000E030460079002803D02046FFF7CEFF0543641C2406240EEFD0284670BD0000781500201CB50020694648706846FFF7AFFD01AA69460A2094
:4062C000FEF7E6FD6946042008561CBD70B50D4601F09EFB04000BD02079002808D0FDF77DFDE178A0782A4602F0BCFD002070BD022070BD01480079704700004C150020B2
:406300004030C07E002800D00120704700B500F001F800BD902148430749084A40186030417F491CC9B24177D289914201D300214177C8B270470000581500204416002053
:4063400013B501F065FB04000BD001F01CFF002807D0214601AA0A310620FEF799FD00201CBD02201CBD000010B50C4601F050FB00280AD001F007FF002806D02246044929
:406380000A20FEF785FD002010BD022010BD000039150020F3B581B0074601460026029803F062F80446002F01D0002500E0154D002D21D0284601F061FB032C04D139466B
:4063C000029803F0ADF806463846029902F098FA032C06D0002C10D00121384601F054FC03E03146384603F0ABFA284602F076F90221284602F08CF9FEBD3846029902F083
:406400007FFAFEBD7815002010B5044600F04CFA002804D103F076FF002801D00C2010BD2078611C02F024FEFF2801D01F2010BD02F06AFEFF280AD02178621C02F0E8F96D
:40644000044821780068026B601C904710BD072010BD00006C0D002010B503F053FF002801D00C2010BD02F0E5FD03480068C06A8047002010BD00006C0D002070B50D4643
:40648000044610210DF05EFA1021601806460DF059FA334610221946204603F061FF102130460DF04FFA02202870204604F0A4FE70BD0000FEB5044640782178020280065C
:4064C000870FE0781143A5780E050002360D0543304601F09DFAEAB23B4621460096019000F0FAF90006000E14D10B48224600680199436928469847C0B2FF280AD1019855
:40650000EAB24030817EFF23491C81762146019800F0E1F8FEBD0000880D00200020704710B5044603F0EEFE002801D00C2010BD2078611C02F09CFDFF2808D002F0D0FC85
:40654000044821780068426B601C904710BD1F2010BD00006C0D002010B500F06BF904F015FF002010BD10B5044600786178E2780843A17811430843217908436179084387
:4065800005D003F0B1FE002803D00C2010BD122010BD204602F064FE002010BD10B5FCF77DF902F08BFF044804F010F802F0A2FC012000F003F810BD20150020F1B586B03E
:4065C00003A8009005A8019028489F22017B114001736846FDF720FC002845D169460989C90705D0224806990068C2686846904769460989890706D5002835D11D48006807
:40660000816A0698884700282ED11B4E0025757075737571F575357675767575B570F570B5713746F5730120D03738731F20F880FF2130467972A0300176457600F028FBFB
:4066400000242046069901F049FD002803D1641C2406240EF5D0FD720749BD72B573C0310D704D704D600D7207B0F0BD0C150020880D00206C0D00205815002070B50546C0
:406680000E46084602F0F8FE0446304602F00EFF0121A9400A46224001400A4301D0012070BD002070BD10B50446084602F0FEFE0121A140014201D0012010BD002010BD9D
:4066C00010B5FEF7EDFC032804D102F0A1F90120FEF724FD10BDFEB51C4616460F46054601F0FCFFA878FFF711FE02460190334639460094284600F00DF8002808D1A8785C
:406700000199FFF71FFCFF2C02D138460DF0DAF9FEBD0000FFB585B005460E980C46FF2810D02B49C00009680A5840180179C0795278814201D9012601E09006860F68461A
:40674000038108E06078A1788006860FE0780002014368460181284601F046FD070007D021462846079A00F001FD384609B0F0BD304600F0AFFD04AE0346039002AA294650
:406780000096204600F019FC3C20405D002818D0284601F029FD012813D0684600890096C0B20190A878231DFF22079902F088FA68460089039BC2B2A878079902F0CCFD15
:4067C000D3E7684600890021C0B20091E9E70000840D0020F8B5002600253046FFF72AFD07001DD090201149704340186030447F12E0601CFCF7BCF9CCB23846E040C00723
:40680000C00F07D02146304602F070F821463046FFF7C0FD6D1CEDB20548018AA942E8D8761C3606360ED7D0F8BD0000581500204416002010B502F05DFB0020FFF7BEFEEA
:406840000DF0D6F9002010BDF8B5002400F010F90123012800D10124104F00203E4620360425082203E0002801D0002100E031460979002907D001290BD002290BD011466E
:4068800081402143CCB2401C0006000EEBD07C70F8BD1C43F7E72C43F5E700005815002010B5FFF7D1FF10BD10B5044604F0C0FE002802D1601C00F001F810BD1CB5002419
:4068C0000094062269460194FCF76EFA002800D1122420461CBD0000F8B5044600201E4617460D46002C12D0002D10D0022E0ED0032E0CD0002F0AD02179092907D0002999
:4069000005D013494A7F5A21095D8A4207D82089002104F0A6FB28460DF0D4F8FF20E18F012905D1002F03D0012E06D0002E04D0374301D10121E187F8BD0021E187069AEF
:406940002A70069A120A6A70AF70E970F8BD00000C15002070B50E4CFBF767FE0546FEF79FFB062802D02078012803D02846FBF760FE70BDFBF7DAFB2846FBF75AFEFEF7D6
:406980008FFB0628F5D020780028E5D170BD0000320D002010B5FBF748FE0446FEF780FB012809D0FEF77CFB022805D0FBF7BEFB2046FBF73EFEEEE72046FBF73AFE10BDC3
:4069C00010B50B4681791943817103D08078114602F090FC10BD10B582798A43827102D1807802F09BFC10BD30B50C4C0220A28A0B4B9978002901D0022906D11D785B78D5
:406A0000EB18282B01D9032002E0032900D101205105490DC0020143A18230BDC0112E403C0D002000B500F029F8002807D0012805D0032801D0042801D0002000BD0120DF
:406A400000BD014600B50020C90701D000F010F800BD014600B50020C90701D000F008F800BD00000148006870470000340D002001480088000A704720102E400448008BAD
:406A8000410501D5042070474007800F7047000000102E400148406870470000340D00207CB50446002568460570200610D5FFF7E5FF01280CD101A801F0BAFF68460079A3
:406AC00000F058FB012001F071FE0220FFF7E8FE600712D50C48017901290ED10571684601F0A6FF6846007800F078FB0220FFF7D7FE00212620FFF7BFF90448006801694C
:406B0000204688477CBD0000400D00206C0D002010B501460A4A007800241070FFF7A8FF0128084603D002F007FB204610BD00F0E7F80400F9D1034801210170F5E7000000
:406B40003C0D00201816002070B50446FFF790FF002801D00C2070BDA27B01211F48002A827801D00A4301E05208520082706279012A14D0C17849084900C170184D2868CE
:406B8000016820468847207901280CD06188208803F066F92080207904280FD015E0C2780A43C270EAE72868C168E01D8847E01D02F042FB0B48008D208006E02868C16823
:406BC000E01D8847E01D02F037FB074920798870204602F0BFFA002070BD0000581500206C0D00200C1500203C0D002008B50178FFF73EFF814201D10C2008BD002914D09D
:406C0000072069460870FFF70DFF012807D10121684600F0E5F8012801D0092008BDFFF7E3FE02F0CBFA012011E0FFF7FBFE012806D1684601F0FCFE6846007800F0CEFA78
:406C400002F0B2FAFFF714FF0028FBD10220FFF727FE002008BD000010B501460A4A007800245070FFF704FF0128084603D002F021FB204610BD00F065F80400F9D10348B1
:406C800001214170F5E700003C0D00201816002038B568460CF0ACFE002801D01F2038BD01210098C90201804180002505714571857107214173857302F04CFA009C202208
:406CC00000212046FCF788F825702A460021601CFCF782F8204602F02FFA204602F0EAFA00980CF0EFFE062200210448FCF774F802480C388560002038BD0000400D002064
:406D0000F8B5044600250D4800950078012806D068460CF06DFE002803D007250CE00C250AE0074E009830602278611C401CFCF74AF83168207808702846F8BD1816002054
:406D4000340D0020F8B5044600250D4800954078012806D068460CF04BFE002803D007250CE00C250AE0074E009870602278611C401CFCF728F87168207808702846F8BD85
:406D800018160020340D00200346084800B5834209D8184600F03CFE002804D00089984201D1012000BD002000BD0000FF0E0000074A9179491C8906890E917138220A4023
:406DC00092014907090E1143084302490840704758150020FF0E0000C006C00E70470000F8B507460E4600240D4803E0002C01D0002500E005462979002905D0641C24068A
:406E0000240EF3D00020F8BD0021204601F066F92E712046FFF7CCFF28813C700120F8BD7815002010B503F0CFFA0222002100F003F802F00BF810BD10B5094B40074907F0
:406E4000000F090F185A595A40185043C0086421FBF78EFE002800D1012080B210BD000038630100F7B53D20405C88B015460C46002802D02878042802D200200BB0F0BDAF
:406E80006946087200262046FFF73AFA012800D00126204603A938300191009023460327A17E34333246206A03F0AAFB02A8089900900B46019120463A4603A9243003F0ED
:406EC0002FFA02466846007A2870204601F0F2F81046D3E7FFB587B00C4605461078694608723D20005D1746002826D000262046FFF706FA012800D00126204603A9383086
:406F0000019100902346A17E34333246206A03F077FB02A80090291D019120462B1D03A924300A9A03F0FCF902006846007A388002D1204601F0BEF810460BB0F0BDF0B568
:406F400005463C20405C89B016460C4600280CD0307869460873002806D000272046FFF7CFF9012803D003E01F2009B0F0BD012703200890204604A938300191009023465B
:406F8000E17E34333A46E06903F03AFB6846007B03A928180290009120462B46019504A92430089A03F0F0F902466846007B3070204601F089F81046D7E7FFB505463C209E
:406FC000405C89B016460C46002810D0084601F00BF901280BD0308869468883002809D000272046FFF78CF9012805D005E000200DB0F0BD0220FBE70127204603A9383031
:40700000019100902346E17E34333A46E06903F0F7FA291D2B1D07A8129A6D4607C5204603A924300C9A03F0AFF902466846808B3080204601F048F81046D9E770B50C466E
:407040000646FFF75DF9012824D06079227900020243E079A37900020343607A921F0102207A0843E17A0D02A17A154C294335464035A24207D20A38221F904203D2FF2028
:40708000F43083420DD91E202873304600F0C8FB1E2070BD00222421304602F027FE242070BDB07801F0BEFD012801D0002070BD28202873304600F0B3FB282070BD0000A8
:4070C0007B0C0000002801D0002000E003484030C07F012800D0002070470000781500200146002049070ED50021084B03E0002901D0002200E01A461279022A04D0491C5C
:407100000906090EF3D0704701207047781500200146002049070ED50021084B03E0002901D0002200E01A461279022A04D0491C0906090EF3D070470120704778150020C8
:4071400010B5044680346068002803D00CF0CEFC0020606010BD4030417070474030817070474030017070470171704792001018C166704770B53C2501F030FA040004D054
:4071800020460021433001F0EDFCFF222946204600F0E8FB002C02D0A07801F0A1F970BD10B5002801D0002000E00348002802D0008903F09DFF10BD7815002010B50028E2
:4071C00001D0002000E00448002804D00179072901D100F047F810BD7815002010B501F0FDF9002802D0807801F07AF910BD00207047000070B50546008A00281ED0104942
:40720000F122097B1140C90618D5294640314A8A098A521C4A4392B2D10800D10121540801E0621A94B2A042FBD9FEF717FD012804D1298AA878224601F0CAFD70BD00007C
